:020000040005F5
:20600000003D0120516F0500036E050013640500A36D0500A36D0500A36D0500000000002C
:20602000000000000000000000000000A36D0500A36D050000000000A36D0500A36D05000C
:20604000A36D0500A36D0500A36D0500A36D0500A36D0500A36D0500A36D0500A36D050098
:20606000A36D0500A36D0500A36D0500A36D0500A36D0500A36D0500A36D0500A36D050078
:20608000A36D0500A36D0500A36D0500A36D0500A36D0500A36D0500A36D0500A36D050058
:2060A000A36D0500A36D0500A36D0500A36D0500A36D0500A36D0500A36D0500A36D050038
:1860C000A36D0500A36D0500A36D0500A36D0500A36D0500A36D05004A
:2060D8002DE9FE4F7D4A0190864C5068800806D2106804F15001000C40F0F0000870784DDC
:2060F8004FF00120C5F89903DFF8D8817E4E35F86B0CD2F808B0641E5F46B80E10D2780E58
:206118000ED3802084F820004FF6D801A4F8611006F1700320741868C0F3046000F0A0FBFF
:20613800DFF8A49159F8180C06F1E00AC0F340031BB966490020086001E047F04067644978
:20615800F80EBE0E80F001004FF0805300F00100086086F0010000F00100886003F5F870C9
:206178000090D3F8F07101987A6859469047DAF80070584B35F83B2C07F0FF06101280F053
:20619800C000B04211D002F0FF021968B04234BF01214FF0FF3140180102864281F4404151
:2061B80042EA010125F83B1CEFD13809C7F30331C7F384466FF4017200F0F000014304F8BC
:2061D8000810F90CA65401F0F00040F47040A4F86300DAF80460D9F800001F4620F0100838
:2061F80028F4F070C9F8000057F8080C5FEA9B6002D25FEA5B6017D259F8180C800834BFF2
:20621800300AF00800F0F80040F47840A4F86100207800F07F002070207840F080002070F4
:20623800C6F3044000F01CFB46F3050321783A6841F30500984211D09842B4BF01224FF023
:20625800FF3201F04001801800F03F020A4322702178834241F080012170E7D13868386882
:20627800C9F80080009A57F8080CDAF814004026C0F3053085F8A30F43F61803E67510683E
:20629800A5F8FF3F8168584688471349134A0AE0105C9478131D844299BF184410F8010CDB
:2062B80018444078086008684B689842FCD10228EED10B4901200860BDE8FE8FAC4F00503D
:2062D8006BA00C40FEFDFFFF2800094094042A43000220433420094000600C40FC6F0500C2
:2062F8009404604206620840181300502DE9F04FADF1640D00F006F900287BD04FF0FC0917
:2063180000244FF0FE0BC8466CE0250334216A46284600F061FC9DF81010FE2960D19DF815
:206338000C0003285CD19DF80D00012858D19DF81100FC2854D00B98FE29074650D18DF842
:2063580060902C210DAA00F047FC1399384600F003FD0646B6F1FF3F42D0169938463246FC
:20637800891B491C139100F04FF910355FFA80FA18A9284600F0F6FABAF1000F30D1139992
:20639800700BC5B2284600F039F80F998DF860B0814217D1600318A9113000F0E3FA2846DC
:2063B80018A900F073FD9DF8461031F0010003D0032918BF07290CD100F096FA149800F098
:2063D800E6FD06E08DF8609007F1110018A900F0C9FA8DF8608007F1100018A900F0C2FA10
:2063F800641C64B2E0B200F061FC044600288CD500F07AFA19B0BDE8F08FFEE72DE9FE4FA4
:2064180001903D4800680F1C824614BFB7F1FF3F00206ED0019C604300F048FD7F1EB7FB18
:20643800FAF64FF0FF35B7FBFAF00119C9B200190291C0B206FB0AF1A042A7EB010707F122
:2064580001071FFA87F952DB001B00F1010B0298A04207D15FFA99F619F0FF0F1CBF761C7E
:20647800F6B201E05FFA9AF6002E3BD00AFB04F0B04600270090B81BB0F1FF3F05D1029891
:20649800A04202D119F0FF0001D14FF480700199A1420ABF002F00220C22904217DD184936
:2064B800801A5118491E11F8012F4FEA152C554005F0FF0508226B0832BF6D080F4B83EA4F
:2064D8005505521EF7D1401E85EA0C05EBD1009800EB072000F5807000F0E8FC7F1CB8F1D1
:2064F8000108C8D1641CBBF1010BE4B2AFD185F0FF30BDE8FE8FC046000100202083B8ED4F
:20651800000000202DE9FF413E4C103C60684169062088476068416B062088470128F9D154
:206538006068C1694FF4A06088470127314E324D376028688008FCD36068C1694FF4807076
:206558008847376028688008FCD34FF08046706920F00F00706103253562206928490568E2
:20657800264800224FF00808134600903046CDF80480A8472068456C09224FF0FF33414631
:206598000A2000903046A847706840F0020070602069026902A9304690470028F8D1206885
:2065B800C16B1420884700F0CFFCAB208DF80C0000F0D2FC03A8394600F0E8FB002400B9E5
:2065D8003C4600F0C1FC4CB1C8210846411E002889B2FAD100F0D0FA00B1002414B900F067
:2065F80083F902E000F094FA044620460090BDE8FF81C046282008602820084000093D00B6
:20661800006CDC02C40100102DE9F04F15460F46064615F0030FADF5827D55D13048026832
:20663800EC19B5FBF2F1601EB0FBF2F088424BD32C2849D8B7FBF2F1E8B25143B0FBF2F0F2
:206658007C1AC3B2B7FBF2F1C8B21CBF401CC0B24FF000081C4604EB0009B8B1DFF884B04A
:2066780000F044FB409020483038006841696003884782464098CBF8008000F04FFC5FFA78
:206698008AF008BB641CE4B2A145E9DCB8F1000F1AD107B34FF48074BC4288BFBCB2304627
:2066B8006A46214600F098FA70B100F01FFB824622462946684600F015FC8146504600F063
:2066D8002DFCB9F1000F02D04FF0FF3004E03F1B26442544E0D1404641B0BDE8F08FC0461D
:2066F8000001002084046042D80100102A4AB0B5D2F87C42B4F1FF3F08BF002400F0E4FB50
:20671800042847D1D2F878021268070F02F0FF027F2A88BF002200F0D7FB4FF0FF310428E7
:206738000AD13846012809D9801E03D0401E03D1153200E00B3251B214292BDA2048174FC3
:206758000025103805603868806C80471448006820B1144800682046FFF7B2FC12481349E3
:206778000560134F0A686FF35B4247EA0200086010490868C0F30130012806D10A680E48B9
:20679800104040F400320A6008600C4908680028FCD1B0BDFEE7C046A0100050F001001046
:2067B80080012843800520438C210840482003400000390128000940EFFFFCFC0C00684206
:2067D80094046042002A4AD05FEA000C8B071CD1830722D1102A08D370B4103A78C978C0D6
:2067F800103AFBD270BC103238D0042A2CD3082A05D30C2A24BF08C908C008C908C008C9A1
:2068180008C092072AD0920F22E00B780370491C401C521E22D08B07F7D1C30714D18307B6
:20683800D8D0121F12D308C903801B0C4380001D121FF8D20AE008C903701B0A43701B0A01
:2068580083701B0AC370001D121FF4D2121D05D00B780370491C401C521EF9D1604670476F
:206878000146F8B501F01E0201F01F00162AA4BF01F01F002038194E317801F01F01162980
:20689800A8BF2039814228D0154F3B68154A23F010031C0A4FEAD31C14D323F08004A2F17A
:2068B80008053C602C680DE014688142B4BF01244FF0FF340919347801F01F0504F0E00492
:2068D800254335708842EFD110685FEA5C0004D3106810683B6052F8080CF8BD06620840C7
:2068F8002800094034200940F8B5B9208DF8000000F032FB0121684600F048FA00F024FB39
:206918000A2400F005F9002818BFB4F10104F8D14FF0805000F5DC74D0F8B801016A4FF44E
:206938008070884701270D4E0D4D376028688008FCD32068016A4FF4A060884737602868F9
:206958008008FCD320688169062088472068416B062088470228F9D1F8BDC04628200860D9
:20697800282008402DE9FC410F46054601264FF0020800F001F950BB00F038FA38BB05F00D
:20699800FF04C4F58074B44288BF341C8DF800808DF80350280C8DF80100280A8DF8020052
:2069B80000F0DAFA6846042100F0F0F9361B2D1920B93846214600F0E9F918B100F0C4FAB1
:2069D800BDE8FC8100F0C0FA3F19002ED1D1BDE8FC8130B50024ADF12C0D65036946082268
:2069F800284600F0EBF9684600F016FA01281FD1284669462C2200F0E1F99DF81200012871
:206A180003D0032818BF072812D19DF80C0003280ED19DF80D0001280AD19DF81100FC285C
:206A380006D0FF2818BFFE2802D1079800F0AFFA2046411C2B28CCB2CFDB0BB030BD30B56E
:206A5800ADF13C0DFFF75EFD60B3002034216A4600F0C2F89DF81100FE2823D10B98069902
:206A7800054600F079F90699044622462846FFF7CBFDA8B90699600BC4B22046FFF7BEFCDD
:206A9800FC21029D8DF83410854209D1FE208DF834000DA9204600F0F9F9079800F077FAE3
:206AB800FFF722FF0FB030BDF8B5844640F6FF741CF8013B002210E0481B401E10F8015B54
:206AD8007F1E01F8015BF9D103E01CF8010B01F8010B521C5B08082AEADA5808F5D21CF8D8
:206AF800010B1CF8015B05F00F07FF1CC5F30315122F45EA001508D11CF8016B300A24BF11
:206B18001CF8010B60F3DF16BF19AC42D4D1F8BDBCB5184DD5F80200009000F01DFA042174
:206B3800684600F033F9F0B9114C0221204600F09DF8024600F008FABAB905F1080021464D
:206B580007683FB102790B789A420AD142794B789A4206D148600068002100B10121084686
:206B7800BCBD0830ECE700F0EFF90020BCBDC04604010020BC6F05001FB5154800788DF87F
:206B9800040000F0E9F9134C2068026969464FF0804090470028F7D100F0D6F900F0DCF9BC
:206BB80001A8012100F0F2F802A8012100F05EF8024600F0C9F9002A18BF6FF0010004D1D6
:206BD8009DF808004008E9D2002000901FBDC046BC6F0500C40100107CB515460E4604463C
:206BF800FFF7CAFF98B903208DF800008DF80340230C8DF80130200A8DF8020000F0ACF9D2
:206C18006846042100F0C2F818B100F09DF900207CBD2846314600F029F8024600F094F97C
:206C3800002002B901207CBDB0B50C480C4DA84210D00C480C4CA0420CD0001B083CC7108B
:206C580054F8080F017855F821206168401C90477F1EF5D100BF00BFB0BDC04614700500D9
:206C7800087005003870050028700500BCB50F1C054617D00C4C2068826800214FF080407D
:206C98009047002808BF4FF0FF300CD02068C26869464FF0804090479DF800007F1E05F866
:206CB800010BE8D10020BCBDC401001010B50446ADF1300D200308216A46FFF78DFF684673
:206CD80000F0D2F8012808BF60B20DD0684600F0A3F8012808BF4FF0FF3005D0641CE4B281
:206CF8002C2CE7DB6FF001000CB010BDB0B54FF0805000F5EC74D0F8D801094D8168284662
:206D18008847C7B257B12068426800212846904720688168284688470028F9D13846B0BDE8
:206D3800004003400B4880F308880949086840F47000086000BF00BF00F02FF908B1FFF74F
:206D580073FF002000F07CF8012000F028F9C04688ED00E0003D0120FEB50D4606464FF0A9
:206D7800FF372C2430190C216A46FFF735FF50B19DF80000012805D0019820B12418A54204
:206D9800F0D800E0029F3846FEBDFEE77CB50C1C06460FD0084D286816F8011B42684FF0F8
:206DB800804090472868C26869464FF080409047641EF0D100207CBDC4010010F8B517466A
:206DD8000D46044600F0D7F8002600B101260020311C08BF012014F8011B7F1E05F8011B0E
:206DF800F9D108B100F0CDF8F8BDFEE7094808B500788DF8000000F0AFF801216846FFF741
:206E1800C5FF024600F0A0F8002A14BF6FF00200002008BDBD6F0500084910B508300822DA
:206E3800083911F8013D10F8014DA34218BF002002D1521EF5D1012010BDC046FC6F050013
:206E580008B507480749006800F00F0080020860FFF74CFAFFF7BDFDFFF7F1FD002008BDB8
:206E7800302403400001002010B5074C0821083014F8012D10F8013D9A4218BF002002D1A3
:206E9800491EF5D1012010BDFC6F050070B50D460446FFF72BFF06466103012211312846EA
:206EB80000F020F8304600F039F870BD05494FF4807201E0835C8B5413465A1E002B92B28C
:206ED800F8D1704700000020054800684BF641310001B1EB104F14BF4FF0FF30042070477A
:206EF8001813005008B5054B303B1B689B699847014A0021116008BD84046042D80100106C
:206F1800D0F80300401EB0F1FF3F06D00022401E01F8012BB0F1FF3FF9D1704708B528B1E0
:206F380003480068426803480121904708BDC046D80100100040034008B5FFF7D7FBFFF7E6
:206F5800F1BEFFF75AFA08BD02494FF4801008607047C0469020024002484FF480111030C8
:206F78000160704790200240D0F80320C31D08461946FFF727BCEFF3108072B6704700202D
:206F98007047EFF3108062B670470020704708B5D0F800D04068804708BD0120704700BFEA
:026FB800FEE7F2
:206FBC00050690FFFF00000000002000C215000000001000C214000000000800EF12000036
:206FDC0000000400EF110000000000000000000043433236783252314F4144204E564D3160
:086FFC00010200030200010381
:20700800C16A0500816F0500196F05000000000002000000040100000001000004FFF000BB
:1070280018700500000000202070050004010020F1
:207FA80000008001100084FFFDFF58003AFFBBF3FFFFFFFFFFFFFFFFFFFFFFFFFFFFFFFF7A
:207FC800FFFFFFFFFFFFFFFFFFFFFFFFFFFFFFFFFFFFFF00FFFFFFFF00FFFFFF00C5C5FF2A
:187FE800000000FF00600500FFFFFFFFFFFFFFFFFFFFFFFFFFFFFFFF2D
:00000001FF
