:020000040005F5
:20600000003D01200F7A05005378050097720500F3770500F3770500F37705000000000069
:20602000000000000000000000000000F3770500F377050000000000F3770500F3770500A4
:20604000F3770500F3770500F3770500F3770500F3770500F3770500F3770500F3770500C8
:20606000F3770500F3770500F3770500F3770500F3770500F3770500F3770500F3770500A8
:20608000F3770500F3770500F3770500F3770500F3770500F3770500F3770500F377050088
:2060A000F3770500F3770500F3770500F3770500F3770500F3770500F3770500F377050068
:1860C000F3770500F3770500F3770500F3770500F3770500F37705002E
:2060D80010B4016EC26A4FEAF14383EA714383EA9123C16CCB184FEAB24181EAF21181EA85
:2060F800D201CB18816ACB1800F1280205215468146094685460D46894600C32491EF6D147
:20611800436610BC70472DE9F0410E69CF694C698D694FEAF62383EAB61383EA7663DF19D4
:2061380085EA040333406B40DF190FF2AC3353F82230DF19102A3ABF00EB8202906A406EFC
:20615800C7190B6888684A688C614FEA733C42EA03088CEAB30C02EA030E08EA0008CC68C6
:206178008CEAB35C48EA0E0EF4443C19CD614E610C61C8608A604B6067440F60BDE8F08170
:206198002DE9F04F85B0D0F800A0D0F80490D0F80880C7680669D0F814B08469C3690FF205
:2061B8003831039000F12802002502930191009204E0102D24BF0398FFF782FF4FEAF6216C
:2061D800029881EAB61181EA7661081884EA0B0131406140081801990A681018102D03D287
:2061F80000990A68101802E0039A516E081802944FEA7A315C46B34649EA0A03C61981EA57
:20621800BA0109EA0A0203EA0803474681EABA511A43C8465118D14601EB000A0098011D1A
:2062380000916D1C0198011D402D0191C1D30398026802995244026042684A444260826886
:2062580042448260C268BF180269C760B618426906615A4442618269A418C26984618918B2
:20627800C16105B0BDE8F08FF8B4002A04465FD09D0804EB850703F00303B86A8DF80300F9
:20629800060E8DF80060060C8DF80160060A0DEB03008DF80260C3F1040311F8016B00F8DB
:2062B800016B521E01D05B1EF7D19DF801309DF800001B0443EA00639DF8020043EA0023E7
:2062D8009DF803000343BB62C2F3830002F003026B1C98B104F1280505EB83054E780F78C5
:2062F800360446EA07668F7846EA0726CF78091D5B1C3E43401E45F8046BEFD1C2B16846FB
:2063180011F8015B00F8015B521EF9D19DF801109DF800009DF80220090441EA00619DF852
:20633800030041EA0221014304F1280040F82310F1BC704700210162416209490160094998
:206358004160094981600949C1600949016109494161094981610949C16177207047000040
:2063780067E6096A85AE67BB72F36E3C3AF54FA57F520E518C68059BABD9831F19CDE05BB3
:206398002DE9F04105461400286A00F03F070E46C7F1400829D02018A042286202D2686AE0
:2063B800401C6862E019402817D33B4642462846FFF75AFF2846FFF7E3FEA4EB0804464424
:2063D80000270AE00023402231462846FFF74CFF2846FFF7D5FE4036403C402CF2D23B460F
:2063F800224631462846FFF73FFF7720BDE8F08130B5044683B0606A400D8DF800000D4606
:20641800606A400B8DF80100606A40098DF80200216A626A490F41EAC2018DF80310216A6F
:20643800490D8DF80410216A490B8DF80510206A40098DF80600206AC1008DF80710204631
:2064580094F820200FF2901102F03F02382A34BFC2F13802C2F17802FFF792FF08226946B4
:206478002046FFF78DFF04202168090E05F8011B2268120C05F8012B2168090A05F8011BB9
:2064980054F8042B05F8012B2268120E05F8012B2168090C05F8011B2268120A05F8012BE7
:2064B800401E54F8041B05F8011BDDD1772003B030BDF8B504460D4616461F46FFF73AFFC3
:2064D8003A4631462046FFF75BFF29462046FFF78FFF7720F2BD0000982F8A429144377148
:2064F800CFFBC0B5A5DBB5E95BC25639F111F159A4823F92D55E1CAB98AA07D8015B83122C
:20651800BE853124C37D0C55745DBE72FEB1DE80A706DC9B74F19BC1C1699BE48647BEEF14
:20653800C69DC10FCCA10C246F2CE92DAA84744ADCA9B05CDA88F97652513E986DC631A8EF
:20655800C82703B0C77F59BFF30BE0C64791A7D55163CA0667292914850AB72738211B2ECB
:20657800FC6D2C4D130D385354730A65BB0A6A762EC9C281852C7292A1E8BFA24B661AA84F
:20659800708B4BC2A3516CC719E892D1240699D685350EF470A06A1016C1A419086C371E14
:2065B8004C774827B5BCB034B30C1C394AAAD84E4FCA9C5BF36F2E68EE828F746F63A578A4
:2065D8001478C8840802C78CFAFFBE90EB6C50A4F7A3F9BEF27871C680000000000000006A
:2065F800000000000000000000000000000000000000000000000000000000000000000083
:206618000000000000000000000000000000000000000000000000002DE9F04FADF5BA7D34
:2066380000F064FB002800F02681002528464FF0FF395A90DFF844B25B9013E12803342114
:206658004AAA589000F0F0FF9DF83801FE2840F007819DF83401032840F002819DF8350148
:20667800012840F0FD809DF83901FC2800F0F880FF20DDF86C81559EDDF840A18DF85E0163
:206698004746CDF8648106F12C04489703E04FF00108CDF86481B8F1000F25D1204601219A
:2066B8000DF5AF7200F0C0FF9DF85E01032810D0241D06EB0A07201D874215D32046042135
:2066D80048AA00F0B1FF48982418241FA742E2D20AE05B984134042149AA4990204600F07B
:2066F800A3FF49980028D2D15FEA080719D03046302101AA00F098FF0DF133042078FC2809
:206718000FD0304600F0BCFD4FFA80F9B9F1000F07D0FC208DF83300214606F12F0000F0C0
:20673800E9FD9DF83801FE2840F09A80B9F1000F40F09680FC208DF85C012C2101AA3046B2
:2067580000F072FF0799304601F02EF80446B4F1FF3F00F085800A9930462246091B491C67
:20677800079100F0B1FB5FFA80F8589857A9103000F0C0FDB8F1000F72D10799600B5FFAC0
:2067980080F8404600F026FAFE21039B8DF85C11834255D1680357A9113000F0ABFD40466F
:2067B80057A901F0C3F8FC20002F8DF85D0134D00CA82146302201F001F99DF85F00FC2873
:2067D8002BD008465B9900F0E7FB0746214681220BF1040001F0F2F818A80BF165020BF141
:2067F8004501274B0090384600F062F9C0B2A52804BFFE208DF85D010FD0FC208DF85D018F
:206818000DF25D1106F12F0000F074FD04F12F000DF25D11012201F027F89DF8161031F0CC
:20683800010003D0032918BF072911D19DF85D01FE280DD100F0A8FC089801F008F907E053
:20685800FC208DF85C0157A906F1110000F052FDFC208DF85C0157A906F1100000F04AFD9F
:206878006D1C6DB2E8B200F049FF054600287FF5E5AE00F089FC5DB0BDE8F08F0000002046
:20689800881000202DE9FE4F7D4A0190864C5068800806D2106804F15001000C40F0F00099
:2068B8000870784D4FF00120C5F89903DFF8D8817E4E35F86B0CD2F808B0641E5F46B80EBB
:2068D80010D2780E0ED3802084F820004FF6D801A4F8611006F1700320741868C0F304605B
:2068F80000F00EFCDFF8A49159F8180C06F1E00AC0F340031BB966490020086001E047F00B
:2069180040676449F80EBE0E80F001004FF0805300F00100086086F0010000F0010088600D
:2069380003F5F8700090D3F8F07101987A6859469047DAF80070584B35F83B2C07F0FF06BD
:20695800101280F0C000B04211D002F0FF021968B04234BF01214FF0FF31401801028642ED
:2069780081F4404142EA010125F83B1CEFD13809C7F30331C7F384466FF4017200F0F0003E
:20699800014304F80810F90CA65401F0F00040F47040A4F86300DAF80460D9F800001F4658
:2069B80020F0100828F4F070C9F8000057F8080C5FEA9B6002D25FEA5B6017D259F8180C7D
:2069D800800834BF300AF00800F0F80040F47840A4F86100207800F07F002070207840F0C2
:2069F80080002070C6F3044000F08AFB46F3050321783A6841F30500984211D09842B4BF40
:206A180001224FF0FF3201F04001801800F03F020A4322702178834241F080012170E7D198
:206A380038683868C9F80080009A57F8080CDAF814004026C0F3053085F8A30F43F6180309
:206A5800E6751068A5F8FF3F8168584688471349134A0AE0105C9478131D844299BF184455
:206A780010F8010C18444078086008684B689842FCD10228EED10B4901200860BDE8FE8FAB
:206A9800AC4F00506BA00C40FEFDFFFF2800094094042A43000220433420094000600C401F
:206AB800BC7A05009404604206620840181300502DE9F843089C0F461D461646214600F0BE
:206AD80087FFDFF8048104F120014046083000F07FFF404604F14001283000F079FF384680
:206AF80004F1600100F074FF304604F1800100F06FFF274805602749006800F24C4900F256
:206B1800944700F5976600F2DC4500F58E68224808602348214908602348224908602448D9
:206B3800224908602448234908602548234908602449032008700820C9F80000C8F8000038
:206B58003860306004F12001286009F1040000F049FF08F1040004F1400100F043FF381D67
:206B7800214600F03FFF301D04F1600100F03AFF281D04F1800100F035FF00954846414613
:206B98003A46334600F022F840B2BDE8F883C046883F01208C3F0120D0C30110903F01205A
:206BB800F4C30110943F012018C40110983F01203CC40110803F012060C40110843F012012
:206BD80084C401109C3F0120587F0500DFF800F005A700102DE9FE4F019042480F460168AD
:206BF800002F8A4614BFB7F1FF3F002076D0DFF8F880019C4FF480724046614300F0DEFE48
:206C18007F1EB7FBFAF64FF0FF35B7FBFAF00119C9B200190291C0B206FB0AF1A042A7EBEB
:206C3800010707F101071FFA87F955DB001B00F1010B0298A04207D15FFA99F619F0FF0F00
:206C58001CBF761CF6B201E05FFA9AF6002E3ED00AFB04F0B04600270090B81BB0F1FF3FA9
:206C780005D10298A04202D119F0FF0001D14FF480700199A1420ABF002F00220C22904233
:206C980017DD1949801A8918491E11F8012F4FEA152C554005F0FF0508226B0832BF6D08A0
:206CB8000F4B83EA5505521EF7D1401E85EA0C05EBD100990C484FF4807201EB072101F59D
:206CD800807100F07BFE7F1CB8F10108C5D1641CBBF1010BE4B2ACD185F0FF30BDE8FE8F3E
:206CF8002083B8ED00000020B02400202DE9FF413E4C103C60684169062088476068416B19
:206D1800062088470128F9D16068C1694FF4A06088470127314E324D376028688008FCD3CB
:206D38006068C1694FF480708847376028688008FCD34FF08046706920F00F0070610325D3
:206D58003562206928490568264800224FF00808134600903046CDF80480A8472068456C6E
:206D780009224FF0FF3341460A2000903046A847706840F0020070602069026902A93046CA
:206D980090470028F8D12068C16B1420884700F03BFEAB208DF80C0000F03EFE03A8394681
:206DB80000F01CFD002400B93C4600F02DFE4CB1C8210846411E002889B2FAD100F0DAFBB2
:206DD80000B1002414B900F0DFF902E000F09EFB044620460090BDE8FF81C04628200860AB
:206DF8002820084000093D00006CDC02C40100102A4AB0B5D2F87C42B4F1FF3F08BF002457
:206E180000F0A4FD042847D1D2F878021268070F02F0FF027F2A88BF002200F097FD4FF0E9
:206E3800FF3104280AD13846012809D9801E03D0401E03D1153200E00B3251B214292BDA2E
:206E58002048174F0025103805603868806C80471448006820B1144800682046FFF712FD63
:206E7800124813490560134F0A686FF35B4247EA0200086010490868C0F30130012806D1C4
:206E98000A680E48104040F400320A6008600C4908680028FCD1B0BDFEE7C046A010005078
:206EB800F001001080012843800520438C210840482003400000390128000940EFFFFCFCB4
:206ED8000C006842940460422DE9F04F15460F46064615F0030FADF5827D4CD12B480268A7
:206EF800EC19B5FBF2F1601EB0FBF2F0884242D32C2840D8B7FBF2F1E8B25143B0FBF2F03C
:206F18007C1AC3B2B7FBF2F1C8B21CBF401CC0B24FF000081C4604EB0009B8B1DFF870B095
:206F380000F00CFC40901B483038006841696003884782464098CBF8008000F031FD5FFA08
:206F58008AF0C0B9641CE4B2A145E9DCB8F1000F11D1BFB14FF48074BC4288BFBCB23046FB
:206F78006A46214600F060FB28B122462846694600F07AFC10B14FF0FF3004E03F1B2644FC
:206F98002544E9D1404641B0BDE8F08F0000002084046042D80100102DE9F04180462F4864
:206FB8000F1CADF1680D08D005464FF4805140462A4600F039FB284604E041464FF480523C
:206FD80000F0FCFC0546A869002808BF002042D0684600F013FB05F10C016846042200F0C1
:206FF80013FB05F1120168462F2200F00DFB05F18101684640F67F7200F006FBAC69A86907
:2070180008F58058A4F58054B0F5805F1DD04FF480562FB1404631462A4600F005FB04E06B
:207038004146B2B2284600F0C9FC68462946324600F0EAFAA41BB4F5805F94BF261C4FF4A2
:20705800805608F58058002CE3D1054C6846214600F0E3FA20461AB0BDE8F081850000206F
:2070780088240020002A4AD05FEA000C8B071CD1830722D1102A08D370B4103A78C978C09B
:20709800103AFBD270BC103238D0042A2CD3082A05D30C2A24BF08C908C008C908C008C9F8
:2070B80008C092072AD0920F22E00B780370491C401C521E22D08B07F7D1C30714D183070E
:2070D800D8D0121F12D308C903801B0C4380001D121FF8D20AE008C903701B0A43701B0A59
:2070F80083701B0AC370001D121FF4D2121D05D00B780370491C401C521EF9D160467047C7
:207118000146F8B501F01E0201F01F00162AA4BF01F01F002038194E317801F01F011629D7
:20713800A8BF2039814228D0154F3B68154A23F010031C0A4FEAD31C14D323F08004A2F1D1
:2071580008053C602C680DE014688142B4BF01244FF0FF340919347801F01F0504F0E004E9
:20717800254335708842EFD110685FEA5C0004D3106810683B6052F8080CF8BD066208401E
:207198002800094034200940F8B5B9208DF8000000F042FC0121684600F020FB00F034FC95
:2071B8000A2400F0B3F9002818BFB4F10104F8D14FF0805000F5DC74D0F8B801016A4FF4F8
:2071D8008070884701270D4E0D4D376028688008FCD32068016A4FF4A06088473760286851
:2071F8008008FCD320688169062088472068416B062088470228F9D1F8BDC0462820086031
:2072180028200840002213460A46194671B510F0030F0BD0002A82BF00F8011BB2F1010264
:2072380010F0030FF6D1002A08BF71BD11F0FF0141EA0121042A18D341EA0141082A0FD356
:207258000E46102A08D30C460D46B2F10F0312F00F0272C0103BFCD812F0080F18BF42C0FD
:2072780012F0040F18BF40F8041B12F0020F18BF20F8021B12F0010F18BF017071BDFEE727
:20729800F0B51B4C064641F2880000214FF4A052853CADF1C40D20180746FFF7B7FF251DCA
:2072B800812130462A4600F0BFF904F13D0000F02BFB4135002818BFC0B216D130460121D8
:2072D800FFF76AFE04460021C02201A8FFF79EFF01A805F1200229463B4600902046FFF712
:2072F800E7FBC0B2A52808BF002031B0F0BDC046850000202DE9FC410F46054601264FF0DC
:20731800020800F037F950BB00F098FA38BB05F0FF04C4F58074B44288BF341C8DF8008074
:207338008DF80350280C8DF80100280A8DF8020000F072FB6846042100F050FA361B2D19E9
:2073580020B93846214600F049FA18B100F05CFBBDE8FC8100F058FB3F19002ED1D1BDE8E2
:20737800FC812DE9FE4F0D9C83469A460C9DA0680192002104228046FFF748FF4FF0FF36C1
:2073980005F1080905F12807BBF1010F1CD1606800F034F96068019A514600F035F960683B
:2073B800414600F03AF9284600F0AEFA60B9A06820300090236849463A464046FFF778FB7B
:2073D80010F15B0F08BF00263046BDE8FE8F30B50024ADF12C0D650369460822284600F016
:2073F80015FA684600F056FA01281FD1284669462C2200F00BFA9DF81200012803D0032831
:2074180018BF072812D19DF80C0003280ED19DF80D0001280AD19DF81100FC2806D0FF2853
:2074380018BFFE2802D1079800F011FB2046411C2B28CCB2CFDB0BB030BD30B5ADF13C0D17
:20745800FFF754FC60B3002034216A4600F0ECF89DF81100FE2823D10B980699054600F085
:20747800A3F90699044622462846FFF72DFDA8B90699600BC4B22046FFF7ACFBFC21029DD9
:207498008DF83410854209D1FE208DF834000DA9204600F04BFA079800F0D9FAFFF774FE78
:2074B8000FB030BDF8B5844640F6FF741CF8013B002210E0481B401E10F8015B7F1E01F8CB
:2074D800015BF9D103E01CF8010B01F8010B521C5B08082AEADA5808F5D21CF8010B1CF844
:2074F800015B05F00F07FF1CC5F30315122F45EA001508D11CF8016B300A24BF1CF8010B07
:2075180060F3DF16BF19AC42D4D1F8BDBCB5184DD5F80200009000F07FFA0421684600F08A
:207538005DF9F0B9114C0221204600F0C7F8024600F06AFABAB905F10800214607683FB1CC
:2075580002790B789A420AD142794B789A4206D148600068002100B101210846BCBD08302A
:20757800ECE700F051FA0020BCBDC046A82400207C7A05001FB5154800788DF8040000F03D
:207598004BFA134C2068026969464FF0804090470028F7D100F038FA00F03EFA01A80121B2
:2075B80000F01CF902A8012100F088F8024600F02BFA002A18BF6FF0010004D19DF8080042
:2075D8004008E9D2002000901FBDC0467C7A0500C401001018B4002818BF00291C4603D005
:2075F800002C18BF002A02D112BCFF20704713460A46214601B010BCFEF75BBF002818BF34
:20761800FEF798BEFF207047002818BF002900D00AB9FF207047FEF7B3BE00281CBF00290E
:20763800FEF7E6BEFF2070477CB515460E460446FFF7A0FF98B903208DF800008DF8034043
:20765800230C8DF80130200A8DF8020000F0E4F96846042100F0C2F818B100F0D5F900208B
:207678007CBD2846314600F029F8024600F0CCF9002002B901207CBDB0B50C480C4DA84295
:2076980010D00C480C4CA0420CD0001B083CC71054F8080F017855F821206168401C9047EC
:2076B8007F1EF5D100BF00BFB0BDC046D47A0500C87A0500F87A0500E87A0500BCB50F1C4A
:2076D800054617D00C4C2068826800214FF080409047002808BF4FF0FF300CD02068C268B4
:2076F80069464FF0804090479DF800007F1E05F8010BE8D10020BCBDC401001010B504467C
:20771800ADF1300D200308216A46FFF78DFF684600F0E8F8012808BF60B20DD0684600F0FD
:20773800B9F8012808BF4FF0FF3005D0641CE4B22C2CE7DB6FF001000CB010BDB0B54FF090
:20775800805000F5EC74D0F8D801094D816828468847C7B257B120684268002128469047B6
:2077780020688168284688470028F9D13846B0BD004003400B4880F308880949086840F497
:207798007000086000BF00BF00F067F908B1FFF773FF002000F092F8012000F060F9C04600
:2077B80088ED00E0003D0120FEB50D4606464FF0FF372C2430190C216A46FFF735FF50B196
:2077D8009DF80000012805D0019820B12418A542F0D800E0029F3846FEBDFEE77CB50C1CB1
:2077F80006460FD0084D286816F8011B42684FF0804090472868C26869464FF08040904778
:20781800641EF0D100207CBDC4010010F8B517460D46044600F00FF9002600B10126002022
:20783800311C08BF012014F8011B7F1E05F8011BF9D108B100F005F9F8BDFEE7094808B504
:2078580000788DF8000000F0E7F801216846FFF7C5FF024600F0D8F8002A14BF6FF0020054
:20787800002008BD7D7A0500F8B514460D460646FFF764FF074631462246284600F074F81A
:207898000446384600F08CF8002C14BFFF200020F8BD0000084910B508300822083911F8DF
:2078B800013D10F8014DA34218BF002002D1521EF5D1012010BDC046BC7A050008B50748FC
:2078D8000749006800F00F0080020860FEF7A4FEFFF77DFDFFF7B1FD002008BD30240340C8
:2078F8000000002010B5074C0821083014F8012D10F8013D9A4218BF002002D1491EF5D184
:20791800012010BDBC7A050010B5074C401E0021625C10F8013F9A4204D1491C0829F7DB70
:20793800002010BD012010BD587F050070B50D460446FFF703FF064661030122113128463B
:2079580000F012F8304600F02BF870BD054800684BF641310001B1EB104F14BF4FF0FF30BA
:20797800042070471813005008B5054B303B1B689B699847014A0021116008BD84046042EF
:20799800D8010010D0F80300401EB0F1FF3F06D00022401E01F8012BB0F1FF3FF9D1704703
:2079B80008B528B103480068426803480121904708BDC046D80100100040034038B101E077
:2079D8008B5C835413465A1E002B92B2F8D1704700F11F02202012F80139401E01F8013BE8
:2079F800F9D170470246202011F8013B401E02F8013BF9D1704708B5FFF7FAF9FFF7BABEF8
:207A1800FFF73DFC08BD000002494FF4801008607047C0469020024002484FF480111030C7
:207A38000160704790200240D0F80320C31D08461946FFF717BBEFF3108072B67047002073
:207A58007047EFF3108062B670470020704708B5D0F800D04068804708BD0120704700BF1F
:027A7800FEE727
:207A7C00050690FFFF00000000002000C215000000001000C214000000000800EF1200006B
:207A9C0000000400EF110000000000000000000043433236783252314F4144204E564D3195
:087ABC000102000302000103B6
:207AC800BD740500417A05009D790500000100000F9D49FFF00000000200000000010000A5
:107AE800D47A050000000020E07A0500B0240020C8
:207F5400014C0000B0177D511DEC108BD851BCA2ED3D9E19B733A52F33DA05404D137650E9
:207F74003D88DF5CD0E2F2583053C42AB92ABEEF665FECCF5616CC36EF2DC95E462B7C3B97
:0C7F940009C19956D9AF958163237BE7A2
:047FA0007B730500EA
:207FA80000008001100084FFFDFF58003AFFBBF3FFFFFFFFFFFFFFFFFFFFFFFFFFFFFFFF7A
:207FC800FFFFFFFFFFFFFFFFFFFFFFFFFFFFFFFFFFFFFF00FFFFFFFF00FFFFFF00C5C5FF2A
:187FE800000000FF00600500FFFFFFFFFFFFFFFFFFFFFFFFFFFFFFFF2D
:00000001FF
